:100000000C945D000C9485000C9485000C94850084
:100010000C9485000C9485000C9485000C9485004C
:100020000C9485000C9485000C9485000C9485003C
:100030000C9485000C9485000C9485000C9485002C
:100040000C940E040C9485000C9485000C9485008F
:100050000C9485000C9485000C9485000C9485000C
:100060000C9485000C94850000000008000201003B
:100070000003040700000000000000000000000072
:10008000250028002B0000000000240027002A0083
:10009000040404040404040402020202020203032E
:1000A0000303030301020408102040800102040836
:1000B00010200102040810201A0711241FBECFEFE0
:1000C000D8E0DEBFCDBF11E0A0E0B1E0E0ECF3E1AD
:1000D00002C005900D92AA31B107D9F721E0AAE13B
:1000E000B1E001C01D92A336B207E1F710E0CDE503
:1000F000D0E004C02197FE010E94D309CC35D1077E
:10010000C9F70E9458040C94DE090C94000090E09A
:10011000FC01EC55FF4F2491FC01E057FF4F849107
:10012000882399F090E0880F991FFC01EA57FF4F50
:10013000A591B491FC01E458FF4F859194918FB73C
:10014000F894EC91E22BEC938FBF0895CF92DF925D
:10015000EF92FF920F931F93CF93DF936C017A017D
:100160008B01C0E0D0E0CE15DF0589F0D8016D919C
:100170008D01D601ED91FC910190F081E02DC60139
:100180000995892B11F47E0102C02196ECCFC7019D
:10019000DF91CF911F910F91FF90EF90DF90CF9063
:1001A000089590E0FC01E859FF4F3491FC01EC55B3
:1001B000FF4F2491FC01E057FF4FE491EE2309F437
:1001C0003BC0332339F1333091F038F43130A9F0AA
:1001D000323001F584B58F7D12C0373091F0383060
:1001E000A1F03430B9F4809180008F7D03C08091FC
:1001F00080008F77809380000DC084B58F7784BD99
:1002000009C08091B0008F7703C08091B0008F7DCE
:100210008093B000F0E0EE0FFF1FE458FF4FA59170
:10022000B4918FB7F894EC91611103C020952E23FF
:1002300001C02E2B2C938FBF08958E3008F08E5066
:100240008770806480937C0080917A0080648093C2
:100250007A0080917A0086FDFCCF80917800209111
:10026000790090E0922B08953FB7F89480911F0198
:1002700090912001A0912101B091220126B5A89B67
:1002800005C02F3F19F00196A11DB11D3FBFBA2F28
:10029000A92F982F8827820F911DA11DB11DBC0188
:1002A000CD0142E0660F771F881F991F4A95D1F74D
:1002B00008958F929F92AF92BF92CF92DF92EF926A
:1002C000FF926B017C010E9434014B015C01C1145F
:1002D000D104E104F104F1F00E943401DC01CB010E
:1002E00088199909AA09BB09883E9340A105B1055F
:1002F00070F321E0C21AD108E108F10888EE880EF7
:1003000083E0981EA11CB11CC114D104E104F104C6
:1003100019F7DDCFFF90EF90DF90CF90BF90AF90B7
:100320009F908F900895CF93DF93EC0160E08E81D2
:100330000E94D10061E08E810E94D10060E08E8138
:100340000E94D1008BE891E00197F1F7DF91CF9106
:100350000895CF92DF92EF92FF920F931F93CF9366
:10036000DF937C016C0187E0C80ED11CC0E0D0E0B7
:10037000062F10E0B8010C2E02C0759567950A94FF
:10038000E2F76170F60181916F010E94D100219620
:10039000C430D10579F7C701DF91CF911F910F913B
:1003A000FF90EF90DF90CF900C949301CF92DF926B
:1003B000EF92FF920F931F93CF93DF93EC01F62EF2
:1003C000642F8C810E94D1008D818F3F19F060E0F5
:1003D0000E94D1008F850F2D10E084FF25C06E0193
:1003E00087E0C80ED11CE12CF12CB8010E2C02C004
:1003F000759567950A94E2F76170F60181916F0136
:100400000E94D100FFEFEF1AFF0A88E0E816F1041E
:1004100061F7CE01DF91CF911F910F91FF90EF9087
:10042000DF90CF900C949301B80184E075956795A7
:100430008A95E1F7CE010E94A9016F2DCE01DF91CF
:10044000CF911F910F91FF90EF90DF90CF900C9480
:10045000A90141E00E94D60181E090E0089540E0CA
:100460000C94D601EF92FF920F931F93CF93DF93DB
:10047000EC01623018F08F8588608F876B8B1C8A47
:1004800080E48D8B80E18E8B80E58F8B8C810E9448
:1004900087008D818F3F11F00E9487008E810E941E
:1004A00087007E0187E0E80EF11C00E010E08F85F8
:1004B00084FD03C084E090E002C088E090E008176B
:1004C000190744F4F70181917F010E9487000F5FB3
:1004D0001F4FEDCF8BE39DE00197F1F760E08C813A
:1004E0000E94D10060E08E810E94D1008D818F3FFB
:1004F00019F060E00E94D1006F8564FD1DC063E0CB
:10050000CE010E94A9010BE416E4C8010197F1F79E
:1005100063E0CE010E94A901C8010197F1F763E0F1
:10052000CE010E94A90183E592E00197F1F762E014
:10053000CE010E94A90116C06062CE010E942F0266
:100540008BE496E40197F1F76F856062CE010E941B
:100550002F0283E592E00197F1F76F856062CE018B
:100560000E942F026F856062CE010E942F0284E0FC
:10057000888B6CE0CE010E942F0261E0CE010E94C8
:100580002F028BE39FE10197F1F782E0898B66E010
:10059000CE01DF91CF911F910F91FF90EF900C94BE
:1005A0002F02089580E090E00895009769F0FC0123
:1005B00001900020E9F73197AF01481B590BBC01AE
:1005C0008BE491E00C94A60080E090E008958F9277
:1005D0009F92AF92BF920F931F93CF93DF93CDB7AC
:1005E000DEB7A1970FB6F894DEBF0FBECDBF19A23C
:1005F000423008F44AE08E010F5D1F4F842E912C8B
:10060000A12CB12CA50194010E945807E62FB90135
:10061000CA0101501109EA3014F4E05D01C0E95C3F
:10062000D801EC93232B242B252B61F7C8010E94C2
:10063000D502A1960FB6F894DEBF0FBECDBFDF91F5
:10064000CF911F910F91BF90AF909F908F90089581
:100650004F925F926F927F928F929F92AF92BF92D2
:10066000CF92DF92EF92FF926B017C01B42E9B013F
:10067000AC010E94C709882319F08CE091E027C0E3
:1006800026013701E89477F82FEF3FEF4FE75FE758
:10069000C301B2010E94C70981110DC02FEF3FEFC6
:1006A0004FE75FE7C301B2010E94F60718161CF47A
:1006B00080E191E00CC02FEF3FEF4FE75FE4C7010F
:1006C000B6010E945509181684F484E191E0FF9068
:1006D000EF90DF90CF90BF90AF909F908F907F90E2
:1006E0006F905F904F900C94D5022FEF3FEF4FE744
:1006F0005FECC701B6010E94F60787FDE6CF20E058
:1007000030E0A901C701B6010E94F60787FF11C0BA
:10071000E0914B01F0914C010190F081E02D6DE2F0
:100720008BE491E009954C01F7FAF094F7F8F09416
:1007300002C0812C912CA12C60E070E080E09FE34E
:10074000AB1441F020E030E040E251E40E94FB07AE
:10075000A394F6CF9B01AC01C701B6010E948A07A2
:100760002B013C010E9474086B017C010E94A308CC
:100770009B01AC01C301B2010E9489072B013C011E
:100780004AE0C701B6010E94E7027C01E80CF91CAF
:10079000BB2069F0E0914B01F0914C010190F08198
:1007A000E02D6EE28BE491E00995E80EF91EDB2C5A
:1007B000DD2021F120E030E040E251E4C301B2014C
:1007C0000E945A092B013C010E9474084B01A12C84
:1007D000B12C4AE0C501B4010E94E702E80EF91EFF
:1007E000C501B4010E94A3089B01AC01C301B20181
:1007F0000E9489072B013C01DA94DACFC701FF90F0
:10080000EF90DF90CF90BF90AF909F908F907F90B0
:100810006F905F904F9008950E94D9091F920F9298
:100820000FB60F9211242F933F938F939F93AF9303
:10083000BF9380911B0190911C01A0911D01B0916B
:100840001E0130911A0123E0230F2D3720F4019669
:10085000A11DB11D05C026E8230F0296A11DB11DE3
:1008600020931A0180931B0190931C01A0931D01FA
:10087000B0931E0180911F0190912001A091210150
:10088000B09122010196A11DB11D80931F0190938B
:100890002001A0932101B0932201BF91AF919F91BC
:1008A0008F913F912F910F900FBE0F901F90189531
:1008B000789484B5826084BD84B5816084BD85B53B
:1008C000826085BD85B5816085BD80916E00816047
:1008D00080936E00109281008091810082608093ED
:1008E00081008091810081608093810080918000EF
:1008F0008160809380008091B10084608093B1001A
:100900008091B00081608093B00080917A00846013
:1009100080937A0080917A00826080937A0080913F
:100920007A00816080937A0080917A008068809359
:100930007A001092C10089E00E94870062E08BE497
:1009400091E00E94320261E7262E60E0362E0BE332
:100950001FE1C0E0D0E08EE00E941D012CE330E0FA
:10096000DC010E94CC0920E034E040E050E00E942D
:100970003907CA01B9016E517109810991090E94B3
:10098000A5082B013C0120E030E040EF51EC0E9433
:10099000F60787FD11C020E030E040EF51E4C301CD
:1009A000B2010E94550918166CF4412C512C40EFED
:1009B000642E41E4742E06C0412C512C50EF652E5C
:1009C00051EC752E409247015092480160924901C6
:1009D00070924A0161E070E080E090E00E9459016D
:1009E0008FE00E941D0124E630E0DC010E94CC096A
:1009F00020E034E040E050E00E943907CA01B9012C
:100A000062537109810991090E94A5084B015C019B
:100A100020E030E048E452EC0E94F60787FD11C068
:100A200020E030E048E452E4C501B4010E945509D9
:100A300018166CF4812C912C28E4A22E22E4B22EFC
:100A400006C0812C912C38E4A32E32ECB32E809278
:100A5000430190924401A0924501B092460161E0A9
:100A600070E080E090E00E94590180E10E941D0149
:100A700024EB30E0DC010E94CC0920E034E040E0CF
:100A800050E00E943907CA01B9016A55710981090C
:100A900091090E94A5086B017C0120E030E044EB45
:100AA00052EC0E94F60787FD11C020E030E044EBD5
:100AB00052E4C701B6010E94550918166CF4C12C06
:100AC000D12C84EBE82E82E4F82E06C0C12CD12C68
:100AD00094EBE92E92ECF92EC0923F01D0924001A6
:100AE000E0924101F092420129E23CE54FE85CE3EB
:100AF000C301B2010E945A092B013C0160933B01E2
:100B000070933C0180933D0190933E0129E23CE5C6
:100B10004FE85CE3C501B4010E945A094B015C0136
:100B200060933701709338018093390190933A01B3
:100B300029E23CE54FE85CE3C701B6010E945A098F
:100B40006B017C0160933301709334018093350114
:100B5000909336012AE939E14DE653E4C301B2012D
:100B60000E945A092B013C0160932F0170933001C0
:100B7000809331019093320123E83FE24CE55FE33B
:100B8000C501B4010E945A094B015C0120ED34E417
:100B900048E55BE3C301B2010E945A099B01AC0125
:100BA000C501B4010E9489074B015C0124E736E4CA
:100BB00042EE50E4C701B6010E945A099B01AC0104
:100BC000C501B4010E948A0729E432E944E652E4EF
:100BD0000E945A096B017C0120E030E040EF51E4B3
:100BE0000E94550918164CF0C0922B01D0922C018E
:100BF000E0922D01F0922E010CC080E090E0A0EF79
:100C0000B1E480932B0190932C01A0932D01B0931C
:100C10002E0120E030E040EF51EC60912B0170910B
:100C20002C0180912D0190912E010E94F60787FFE3
:100C30000CC080E090E0A0EFB1EC80932B0190938A
:100C40002C01A0932D01B0932E01C0902B01D090C8
:100C50002C01E0902D01F0902E0129E23CE54FE8B7
:100C60005CE3C701B6010E945A09609327017093A3
:100C700028018093290190932A0120E030E040EF81
:100C800051E4C701B6010E948A0720E030E040E746
:100C900052E40E94FB0720E030E04FE753E40E945B
:100CA0005A09609323017093240180932501909346
:100CB00026010E946D084B015C017B0189E00E94C6
:100CC00087008114910411F460E005C08FEF88164D
:100CD000910429F461E089E00E94D10043C0F10150
:100CE00084918330F9F048F48130B9F08230A1F575
:100CF00084B5806284BD88BC35C08730E9F0883017
:100D000019F1843049F580918000806280938000E1
:100D100090928B0080928A0025C084B5806884BD43
:100D200087BC20C080918000806880938000909272
:100D300089008092880016C08091B00080688093FE
:100D4000B0008092B3000EC08091B00080628093AA
:100D5000B0008092B40006C0F0E8EF16F1040CF089
:100D6000B9CFB2CF60915B01862F846080935B0125
:100D70006C608BE491E00E942F02609147017091BA
:100D800048018091490190914A0142E00E94280364
:100D900088E191E00E94D502609143017091440185
:100DA000809145019091460142E00E94280388E12C
:100DB00091E00E94D50260913F01709140018091C5
:100DC00041019091420142E00E942803E0915E01BE
:100DD000E33010F4E15001C0E2E0F0E0E55BFE4FEB
:100DE00064896F5F60688BE491E00E942F026091DC
:100DF0002B0170912C0180912D0190912E0142E0E8
:100E00000E94280388E191E00E94D50262E370E02D
:100E100080E090E00E94590161E08BE491E00E9443
:100E20002F02C8010197F1F7209709F494CD0E9491
:100E3000000091CDEBE4F1E01382128284E091E0B6
:100E4000918380838CE084838FEF85838BE086831E
:100E500085E0878384E0808783E0818782E08287E2
:100E60001386148615861686178661E0CF010C94CA
:100E70003202052E97FB1EF400940E94500757FD86
:100E800007D00E94580707FC03D04EF40C9450077B
:100E900050954095309521953F4F4F4F5F4F0895A6
:100EA00090958095709561957F4F8F4F9F4F0895D6
:100EB000A1E21A2EAA1BBB1BFD010DC0AA1FBB1F5E
:100EC000EE1FFF1FA217B307E407F50720F0A21BD0
:100ED000B30BE40BF50B661F771F881F991F1A943D
:100EE00069F760957095809590959B01AC01BD0167
:100EF000CF010895A29FB001B39FC001A39F700DC1
:100F0000811D1124911DB29F700D811D1124911D11
:100F100008955058BB27AA270E94A1070C941B09CB
:100F20000E940D0938F00E94140920F039F49F3F07
:100F300019F426F40C940A090EF4E095E7FB0C94DE
:100F40000409E92F0E942C0958F3BA1762077307A6
:100F50008407950720F079F4A6F50C944E090EF459
:100F6000E0950B2EBA2FA02D0B01B90190010C01B9
:100F7000CA01A0011124FF27591B99F0593F50F4D1
:100F8000503E68F11A16F040A22F232F342F442729
:100F9000585FF3CF469537952795A795F040539521
:100FA000C9F77EF41F16BA0B620B730B840BBAF0F1
:100FB0009150A1F0FF0FBB1F661F771F881FC2F75C
:100FC0000EC0BA0F621F731F841F48F48795779570
:100FD0006795B795F7959E3F08F0B0CF9395880F2A
:100FE00008F09927EE0F9795879508950E94E008DD
:100FF00008F481E008950E940F080C941B090E94D8
:10100000140958F00E940D0940F029F45F3F29F0BF
:101010000C94040951110C944F090C940A090E9474
:101020002C0968F39923B1F3552391F3951B550BC4
:10103000BB27AA2762177307840738F09F5F5F4FAB
:10104000220F331F441FAA1FA9F335D00E2E3AF0EA
:10105000E0E832D091505040E695001CCAF72BD002
:10106000FE2F29D0660F771F881FBB1F2617370753
:101070004807AB07B0E809F0BB0B802DBF01FF2785
:1010800093585F4F3AF09E3F510578F00C94040955
:101090000C944F095F3FE4F3983ED4F3869577951F
:1010A0006795B795F7959F5FC9F7880F911D96953E
:1010B000879597F90895E1E0660F771F881FBB1F9A
:1010C000621773078407BA0720F0621B730B840B47
:1010D000BA0BEE1F88F7E09508950E947408689493
:1010E000B1110C944F0908950E94340988F09F575C
:1010F00098F0B92F9927B751B0F0E1F0660F771F3C
:10110000881F991F1AF0BA95C9F714C0B13091F031
:101110000E944E09B1E008950C944E09672F782F74
:101120008827B85F39F0B93FCCF3869577956795F6
:10113000B395D9F73EF490958095709561957F4F62
:101140008F4F9F4F0895E89409C097FB3EF4909508
:101150008095709561957F4F8F4F9F4F9923A9F090
:10116000F92F96E9BB279395F6958795779567951F
:10117000B795F111F8CFFAF4BB0F11F460FF1BC063
:101180006F5F7F4F8F4F9F4F16C0882311F096E9F6
:1011900011C0772321F09EE8872F762F05C06623A4
:1011A00071F096E8862F70E060E02AF09A95660F5D
:1011B000771F881FDAF7880F9695879597F9089516
:1011C000990F0008550FAA0BE0E8FEEF1616170658
:1011D000E807F907C0F012161306E407F50798F0C0
:1011E000621B730B840B950B39F40A2661F0232BD9
:1011F000242B252B21F408950A2609F4A140A69555
:101200008FEF811D811D089597F99F6780E870E039
:1012100060E008959FEF80EC089500240A9416166C
:10122000170618060906089500240A9412161306D4
:10123000140605060895092E0394000C11F4882362
:1012400052F0BB0F40F4BF2B11F460FF04C06F5F7E
:101250007F4F8F4F9F4F089557FD9058440F551F54
:1012600059F05F3F71F04795880F97FB991F61F028
:101270009F3F79F087950895121613061406551F9F
:10128000F2CF4695F1DF08C0161617061806991F0B
:10129000F1CF86957105610508940895E894BB2700
:1012A00066277727CB0197F908950E94E00808F494
:1012B0008FEF08950E946D090C941B090E940D097F
:1012C00038F00E94140920F0952311F00C940409C1
:1012D0000C940A0911240C944F090E942C0970F3F4
:1012E000959FC1F3950F50E0551F629FF001729FCB
:1012F000BB27F00DB11D639FAA27F00DB11DAA1FDA
:10130000649F6627B00DA11D661F829F2227B00D26
:10131000A11D621F739FB00DA11D621F839FA00DB1
:10132000611D221F749F3327A00D611D231F849F01
:10133000600D211D822F762F6A2F11249F57504058
:101340009AF0F1F088234AF0EE0FFF1FBB1F661FD3
:10135000771F881F91505040A9F79E3F510580F09C
:101360000C9404090C944F095F3FE4F3983ED4F3C6
:10137000869577956795B795F795E7959F5FC1F740
:10138000FE2B880F911D9695879597F908950E94D9
:10139000E008880B990B08950E947A07B7FF08951B
:1013A000821B930B0895EE0FFF1F0590F491E02D23
:1013B000099481E090E0F8940C94DE09F894FFCF52
:1013C000000000002902A600D202D1026E616E0068
:0A13D000696E66006F7666002C005F
:00000001FF
